:020000040800F2
:10000000A85A0120A15C0008C9170008CB170008F6
:10001000CF170008D3170008D7170008000000000A
:100020000000000000000000000000009102000835
:10003000DB17000800000000ED020008DD130108D6
:10004000BB5C0008BB5C0008BB5C0008BB5C000834
:10005000BB5C0008BB5C0008BB5C0008BB5C000824
:10006000BB5C0008BB5C0008BB5C0008BB5C000814
:10007000BB5C0008BB5C0008BB5C0008BB5C000804
:10008000BB5C0008BB5C0008BB5C0008BB5C0008F4
:10009000BB5C0008BB5C0008BB5C0008BB5C0008E4
:1000A000BB5C0008BB5C0008BB5C0008BB5C0008D4
:1000B000BB5C0008BB5C0008BB5C0008BB5C0008C4
:1000C000BB5C0008BB5C0008BB5C0008BB5C0008B4
:1000D000BB5C0008BB5C00084B980008BB5C0008D8
:1000E000BB5C0008BB5C0008BB5C0008BB5C000894
:1000F000BB5C0008BB5C0008BB5C0008BB5C000884
:10010000BB5C0008BB5C0008BB5C0008BB5C000873
:10011000BB5C0008BB5C0008BB5C0008BB5C000863
:10012000BB5C0008BB5C0008BB5C0008BB5C000853
:10013000BB5C0008BB5C0008BB5C0008BB5C000843
:10014000BB5C0008BB5C0008BB5C0008BB5C000833
:10015000BB5C0008BB5C0008BB5C0008BB5C000823
:10016000BB5C0008BB5C0008BB5C0008BB5C000813
:10017000BB5C0008BB5C0008BB5C0008BB5C000803
:10018000BB5C0008BB5C000800F002F800F070F8EF
:100190000AA090E8000C82448344AAF10107DA45E2
:1001A00001D100F065F8AFF2090EBAE80F0013F0C4
:1001B000010F18BFFB1A43F001031847EC40010080
:1001C0000C4101000A444FF0000C10F8013B13F001
:1001D000070408BF10F8014B1D1108BF10F8015BA0
:1001E000641E05D010F8016B641E01F8016BF9D193
:1001F00013F0080F1EBF10F8014BAD1C0C1B09D1EA
:100200006D1E58BF01F801CBFAD505E014F8016B5B
:1002100001F8016B6D1EF9D59142D6D370470000ED
:100220000023002400250026103A28BF78C1FBD8FF
:10023000520728BF30C148BF0B607047642911F0D6
:10024000B981782911F0F281732911F01685002007
:1002500070471FB512F009FB11F0E2FD0400002009
:10026000002111F03DFE401C60601FBD10B510BDA7
:1002700011F0B1FD1146FFF7ECFF01F032F911F07A
:10028000E1FD03B4FFF7F2FF03BC05F0A5FC00009D
:100290002C4B19680868B0E8F04F80F30988BFF369
:1002A0006F8F4FF0000080F311887047000000004E
:1002B00008480068006880F308884FF0000080F369
:1002C000148862B661B6BFF34F8FBFF36F8F00DF44
:1002D00000BF00BF08ED00E0DFF80C00016841F44A
:1002E00070010160704700BF88ED00E0EFF3098006
:1002F000BFF36F8F134B1A681EF0100F08BF20ED6D
:10030000108A20E9F04F106009B44FF0500080F3DC
:100310001188BFF34F8FBFF36F8F0EF0A3FD4FF027
:10032000000080F3118809BC19680868B0E8F04F34
:100330001EF0100F08BFB0EC108A80F30988BFF3DD
:100340006F8F7047E8000020EFF3058070470000D2
:1003500070B50446FE48B0F8000A401C0A2190FB24
:10036000F1F201FB120085B2F948B0F8020AA84286
:1003700001D1002070BDF649B1F8001AF44A02EB31
:100380000120FF22214611F06AFB0020F049B1F85C
:10039000001AEF4A02EB012181F8FF001046A0F895
:1003A000005A0120E6E710B50446E948B0F8000A13
:1003B000E749B1F8021A884201D1002010BDE44893
:1003C000B0F8020AE24A02EB00214FF480722046A4
:1003D00011F045FBDE48B0F8020A401C0A2190FBF0
:1003E000F1F201FB1200DA49A1F8020A0120E5E767
:1003F000F8B505460E461446D6A02346D6A2314689
:100400000090284611F06CF8F8BD2DE9F04707463A
:10041000884614469946002500202070002608E0F2
:10042000BA5D6019D0A111F047F8A81C85B2701C04
:10043000C6B2464502DAE81C4845F1DBBDE8F08764
:100440002DE9FF5F074691469A463D46019811F017
:100450001FFA1FFA80FB41E0BD4201D1002001E0FC
:1004600015F8010C8046BD420BD0B8F1260F08D01C
:10047000B8F1220F05D0B8F12C0F02D0B8F1200F3F
:100480002AD115F80B003D2825D105EB0B00461CA1
:10049000002401E0601C84B2305D58B1305D262834
:1004A00008D0305D222805D0305D0D2802D0305DA7
:1004B0000A28EFD1544502DBAAF1010084B222469A
:1004C0003146484611F003FA002009F804000120E3
:1004D00004B0BDE8F09F00BF5D4400BF284601990D
:1004E00011F095F9051EB7D100BFF1E701460029CB
:1004F00000DA0021B1F5487F01DD4FF448715A223E
:100500004A434FF4487392FBF3F2C2F164000A28A5
:1005100000DA0A20642800DD6420704730B5C7B0D7
:1005200093A2402137A8FFF763FF944800680A218F
:1005300090FBF1F201FB12049048006890FBF1F58A
:100540008F4802888D4880688C49496881A3CDE92D
:100550000054CDE9030202918AA2C42106A810F03A
:10056000BFFF002206A937A808F0AFFC47B030BD96
:1005700000B5C5B093A2402135A8FFF739FF7F48E9
:10058000006F08B191A100E092A17C48406F934AAE
:10059000934BCDE90032CDE902016EA3914AC4210B
:1005A00004A810F09DFF002204A935A808F08DFCD6
:1005B00045B000BD10B590B004468BA240216846FE
:1005C000FFF716FF00222146684608F07EFC10B0B7
:1005D00010BD92B070E011A9854809F01EF80446DC
:1005E000002C60D183480078002861D10120814926
:1005F0000870811E804800680DF0ADF818237F4A0E
:100600009DF844107A48FFF700FF00257C480078E9
:1006100001280DD14FA3794A7AA101A810F04CFF0F
:1006200000207749087001207E49087001251AE0F2
:100630007348007802280DD146A3704A7AA101A818
:1006400010F03AFF00206E490870012075490870CB
:10065000012508E07CA00BF05CFF032068490870CE
:100660007D490860002500231A4619466248006843
:100670000CF042FFB5B17948007898B14FF0FF31E6
:10068000774800680DF067F801A8FFF793FF002393
:100690001A461946724800680CF02EFF01A971A095
:1006A00010F0FEFE04E0022C02D100205149087037
:1006B00064200EF03FFA00BF8DE70EB5F9E001A906
:1006C00002A808F03CF84FF0FF314B4800680DF0ED
:1006D00042F8DDED020AB2EE041AB6EE000A00EEB0
:1006E000810ABDEEC00A254880ED000A9DED010A91
:1006F000F6EE000A30EE200ABDEEC00A80ED010AD7
:100700005E48007838B15E4808F02CFA5C480088F2
:100710001A4988600FE0232008F0FDF908B901208C
:1007200000E00020554908700846007818B94FF0DD
:10073000FF30124988601148006F38B10F48406F90
:1007400020B10E498868FFF7D1FE9BE09CE00000D5
:1007500064010020413138007365727665722F257F
:10076000732F257300000000253032580000000070
:1007700074656C656D65747279000000800B0020F3
:1007800032000020747970653D74656C656D657428
:10079000727926736561745F69643D25732674659B
:1007A0006D703D25642E25642668756D693D256450
:1007B000266C75783D256426746F665F6D6D3D25EA
:1007C0006400000073746174650000004155544F6B
:1007D000000000004D414E55414C0000680B0020C8
:1007E00024000020284201086576656E7400000030
:1007F000140C002035000020000000201E0C0020FA
:100800001C000020636D643D636865636B696E2640
:100810007569643D257326736561745F69643D2560
:100820007300000038000020636D643D63686563F9
:100830006B6F7574267569643D25732673656174E5
:100840005F69643D25730000C7EBCFC8B5E3BBF714
:10085000C6C1C4BBA3A100002000002036000020B8
:10086000040000205B524649445D20CBA2BFA8C9CA
:10087000CFB1A83A2025730D0A00000034000020F3
:1008800030000020FD4988676946FD480BF002FDF5
:1008900018B9BDF80000FB49088000231A46194624
:1008A000F94800680CF028FE4FF4FA700EF042F997
:1008B00000BF04E708B50EF054FD00904FE1F34887
:1008C0000088401C80B2F14908800A284CDB0020D7
:1008D0000880411EEC4800680CF03DFFEC480078B1
:1008E000401CC0B2EA4908703C2816DB00200870A2
:1008F000E8480078401CE7490870084600783C2822
:100900000BDB00200870E4480078401C182190FBA5
:10091000F1F201FB1200E0490870E04800782D2850
:1009200007D0DC480378DC480278DDA1DB4810F012
:10093000C3FDDE48007880B1DD48006868B1DC485E
:100940000068401EDA4908600846006828B900209F
:10095000D64908700120D749087000231A46194665
:10096000C94800680CF0C8FDD3484168002088479A
:100970000446002C7CD0D1480078002878D1CE489D
:100980008589C68A32462946CDA010F089FD4FF0F0
:10099000FF31BD4800680CF0DEFEC448007830B17D
:1009A0000020C24908700120C249087088E0002771
:1009B000314628460CF006FB00281CD0C949CAA0C5
:1009C00010F06EFDD2A1C74811F074F830B90220C2
:1009D000B6490870D0480BF09CFD08E00120B349EF
:1009E0000870CE480BF095FDCDA010F059FD0F20FA
:1009F000AF49086063E0C6A1BA4811F05BF800286F
:100A00004DD1314628460CF0E6FA48B19B48006FBC
:100A100008B9012000E0002098490867012712E08A
:100A2000314628460CF0E0FA20B10120934948678E
:100A3000012708E0314628460CF0DFFA18B1002003
:100A40008E49486701278D48006F20BB8B48406F57
:100A500008B3314628460CF0D9FA70B18748806F48
:100A60005A2806DC8548806F0A308449886716E07A
:100A70002EE064208149886711E0314628460CF059
:100A8000D7FA40B17D48806F0A2805DB7B48806F2C
:100A90000A387A49886702E000207849886777B188
:100AA0004FF0FF31A74800680CF055FEFFF760FDDE
:100AB00000231A461946A34800680CF01DFD00BF2C
:100AC00000231A461946704800680CF015FD00BF57
:100AD0007A4804704FF0FF316B4800680CF03BFE21
:100AE0007448007848B10020724908700BF008FC87
:100AF0000BF066FD0120944908709348007800B916
:100B000000BF6A48007818B964495C480BF067FE7A
:100B10005A4991F874000CF03AFB0BF008FCC5B28E
:100B200028460CF03FFB7AA16E4810F0C3FF08B9CD
:100B3000012000E0002005460CF03EFB0020824929
:100B4000087000231A4619464F4800680CF0D4FC80
:100B500000BF642168460DF088FF00BF00BFAEE60D
:100B600010B57AA010F09CFC4FF0FF3146480068A9
:100B70000CF0F1FD01204149C86700207B49087055
:100B800046493E480BF02BFE00231A4619463E48C4
:100B900000680CF0B1FC4FF0FF316A4800680CF0BF
:100BA000DAFD73A010F07CFC78A008F00DFE40F692
:100BB000B8300DF0BFFF4FF4FA7277A177A008F0BC
:100BC00055F94FF4FA7274A176A008F04FF94FF47A
:100BD000FA7271A177A008F049F94FF4FA726EA188
:100BE00077A008F043F97AA010F05AFC7FA182A008
:100BF00008F0A8F9D0B181A010F052FC00231A46E9
:100C00001946504800680CF077FC4FF0FF311E4841
:100C100000680CF0A0FD00201849C86700231A46A0
:100C20001946194800680CF067FC10BD79A010F057
:100C300037FC7EA010F034FC41A383A240F25B712C
:100C400083A008F091F9C0B184A010F029FC002322
:100C50001A4619463B4800680CF04EFC4FF0FF3135
:100C6000094800680CF077FD00200449C86700239C
:100C70001A46194604480068FCE0FEE0800B00209C
:100C8000000C002032000020000000204A0000205C
:100C90003B0000203A000020390000203C000020EA
:100CA000253032643A253032640000001C000020F8
:100CB0002000002038000020940000204800002080
:100CC0005B55495D20546F756368204465746563A6
:100CD0007465643A20783D25642C20793D25640DA7
:100CE0000A000000240000205B55495D204D616929
:100CF0006E20427574746F6E2050726573736564F4
:100D0000212053746174653A2025730D0A00000098
:100D1000494E5F55534500007F280108742801089B
:100D20005B55495D20506F7075702054726967671C
:100D3000657265643A20436865636B20496E0D0AED
:100D40000000000004000020370000205BCDF8C246
:100D5000E75D20BFAACABCD6B4D0D0C1AACDF8C125
:100D6000F7B3CC2E2E2E0D0A000000003600002016
:100D70005BCDF8C2E75D20B8B4CEBB2045535038F8
:100D80003236362E2E2E0D0A0000000041542B5212
:100D900053540D0A000000004F4B000041544530F1
:100DA0000D0A000041542B43574D4F44453D310D32
:100DB0000A00000041542B43575141500D0A0000D6
:100DC00041542B4349504D55583D300D0A00000009
:100DD0005BCDF8C2E75D20D5FDD4DAC1ACBDD32030
:100DE000576946692E2E2E0D0A0000003133363821
:100DF0003035343431353700686868005BCDF8C26F
:100E0000E75D205769466920C1ACBDD3CAA7B0DCF5
:100E1000210D0A005BCDF8C2E75D205769466920C5
:100E2000C1ACBDD3B3C9B9A62E0D0A005BCDF8C2C3
:100E3000E75D20D5FDD4DAC1ACBDD3204D5154546B
:100E40002E2E2E0D0A0000007465737430310000E0
:100E5000312E31342E3136332E3335005BCDF8C28E
:100E6000E75D204D51545420C1ACBDD3CAA7B0DCBE
:100E7000210D0A000CF040FBD7E60021FBA008F092
:100E800093F8D0B1FCA010F00BFB00231A461946D2
:100E9000FE4800680CF030FB4FF0FF31FC48006862
:100EA0000CF059FC0020FB49C86700231A4619467C
:100EB000F74800680CF020FBB7E608F087F8FFF76A
:100EC00057FB00231A461946F04800680CF014FB43
:100ED0004FF0FF31EE4800680CF03DFC0220ED4978
:100EE000C8670120EC49087000231A461946E848F3
:100EF00000680CF001FBE9A010F0D2FA00BF94E604
:100F0000E2B0FFF72DFE0EF02CFA619000274FF0B3
:100F100032080026ABE236E0E5480088B0F5FF7FF6
:100F200009D89DF88011E24802880088401CE04BF7
:100F30001880E04881549DF880010A2823D10021BF
:100F4000DC48DB4A128881540020D9490880DAA1A4
:100F5000D84810F05CFCB0B1DBA1D64810F057FCCB
:100F600005461DB12846FFF7F3F90BE02C21D148C7
:100F700010F083FC044624B1607810B1601CFFF7C8
:100F8000E7F900BF00BF60A808F039FC0028C3D112
:100F90002EE120A9CEA010F083FA14231BAACFA122
:100FA00020A8FFF74DFA00B922E14FF0FF31B84811
:100FB00000680CF0D0FBCAA11BA810F07BFD70BB31
:100FC000102304AAC9A120A8FFF73AFA30B304A855
:100FD00010F05EFC082821D300208DF812008DF857
:100FE000150004A810F0EAFBC24908700DF11300C7
:100FF00010F0E4FBC04908700DF1160010F0DEFBA4
:10100000BE490870BC480378BA480278AFF2703124
:10101000BB4810F051FA0120BA490870E0E0FFE740
:10102000142310AAB8A120A8FFF70AFA0028F5D0C7
:10103000AFF6E00110A810F03DFD0028EED1B4A1FC
:101040001BA810F037FD48B9B3480BF062FA032033
:10105000B24908600120B2490870C1E0B1A11BA8E3
:1010600010F028FD002850D1202308AAAFA120A805
:10107000FFF7E6F928B1132208A986481C3010F0C2
:10108000EEFC182315AAABA120A8FFF7D9F920B1CF
:10109000172215A9A84810F0E2FC20236A46A7A150
:1010A00020A8FFF7CDF978B1684610F0F1FB1028C1
:1010B0000AD305220DF10B017648303010F0CFFC39
:1010C0000021744880F835100B229FA1A14810F030
:1010D000C6FC0F22A0A16F480C3010F0C0FC4FF0EE
:1010E000FF316A4800680CF036FBFFF741FA002335
:1010F0001A461946654800680CF0FEF9012081493E
:10110000087098A010F0CCF96AE0A1A11BA810F01B
:10111000D1FC50BB7848037876480278AFF2804122
:101120005C48403010F0C8F90B22AFF21C418948EE
:1011300010F095FC0F2299A156480C3010F08FFC4E
:10114000012054494867811E504800680CF003FB99
:10115000FFF70EFA00231A4619464C4800680CF0B7
:10116000CBF90120674908703AE08EA11BA810F066
:10117000A1FC20B18DA11BA810F09CFC80BB00201D
:101180006D4908700B228CA1724810F068FC0F2288
:101190008BA140480C3010F062FC8BA13D481C3004
:1011A00010F047FB88A13B48303010F042FB86A18D
:1011B0003848403010F03DFB002036494867411E5A
:1011C000324800680CF0C7FAFFF7D2F900231A463C
:1011D00019462E4800680CF08FF901204949087023
:1011E00000231A4619462A4800680CF085F900BF0A
:1011F00020A8FFF7D8F800287FF4CBAE781C07466C
:10120000282811D300272448007868B1791E1F4888
:1012100000680CF0A0FAFFF781F900231A4619467E
:101220001A4800680CF068F908F101008046C828E7
:101230001AD34FF000084FF0FF31144800680CF04B
:101240008AFA07F039FF04462CB9C82004F09BFC49
:1012500007F032FF044614B900200F49087000233C
:101260001A4619460948B1E0B9E0000073746D33BD
:10127000322F636D640000005BCDF8C2E75D20B6DD
:10128000A9D4C4CAA7B0DC210D0A000004000020C4
:1012900000000020800B0020360000205BCDF8C24B
:1012A000E75D20C1AACDF8CDEAB3C92E0D0A000032
:1012B00046000020360C00202B4D5154545355420B
:1012C0005245435600000000636D643D000000007D
:1012D0005BD6B8C1EE5D2025730D0A00636D640016
:1012E00074696D655F73796E6300000074696D6584
:1012F00000000000390000203A0000203B000020E0
:101300003C00002037000020736561745F69640051
:1013100064656E79000000008A2801082000002022
:101320001C000020726573657276650075736572C6
:101330000000000075696400680B00206578706922
:101340007265735F617400005245534552564544BF
:101350000000000024000020527372762831356DA1
:10136000290000005BD4A4D4BC5D20CAD5B5BDD48F
:10137000A4D4BCD6B8C1EEA3ACD7B4CCACB1E4B85D
:10138000FCCEAA2052455345525645440D0A000052
:10139000636865636B696E5F6F6B0000496E205513
:1013A0007365000072656C656173650063686563F1
:1013B0006B6F75745F6F6B0046524545000000000F
:1013C00046726565000000002D2D000000680CF0DD
:1013D00093F88748007808B9FFF7C2FB00BF701C7C
:1013E0000646B0F5966F3BD3002681480078B8B327
:1013F000804800782D2833D1711E7F4800680CF09A
:10140000AAF91DAA1EA91FA807F0E8FD00B3711EC6
:101410007A4800680CF09FF99DF87C0078490870C4
:101420009DF87800774908709DF874007649087037
:101430007448037872480278AFF29C716D4810F0DE
:101440003BF800231A4619466C4800680CF054F823
:1014500000231A461946684800680CF04DF800BF92
:1014600000BF322161A80DF000FB00BF00BF52E5B4
:101470001CB504460FF06FFF6448032100234FF4AE
:101480008062CDE9001062A1AFF28B500DF02DF813
:101490006048042100230A02CDE900105EA1AFF6E6
:1014A000EB300DF022F85D48022100230A02CDE95D
:1014B00000105BA1AFF6FD500DF017F85A4803215C
:1014C00000234FF40072CDE9001058A1AFF6FD6083
:1014D0000DF00BF8574800680DF040F80FF062FF70
:1014E0001CBD1CB54FF4407004F0FAFBA82004F0BA
:1014F00015FB4FF4E13004F07CFB4FF4E13008F0D1
:1015000011F94DA00FF0CCFF57A00FF0C9FF0BF061
:1015100020FE5EA00FF0C4FF00F006FF64A00FF0F5
:10152000BFFF012000F077FD6A49086880476AA084
:101530000FF0B6FF04F04EF970A00FF0B1FF06F007
:1015400057FE77A00FF0ACFF7EA00FF0A9FF89A097
:101550000FF0A6FF0AF0E7FE0F2292A1944810F0C8
:101560007EFAAFF2A4119248543810F062F9AFF24B
:10157000A8118F48443810F05CF9AFF2B4118C48D0
:10158000303810F056F9AFF2C0118948203810F009
:1015900050F90BF015F807F0BDF8232007F0BBFA5F
:1015A00008B9012000E000208249087007F0D9FF47
:1015B0000AF022F9292180480AF0B5FD01200CF03B
:1015C0007CF80E49086001200CF077F80A490860A1
:1015D0001848012100234A02CDE9001077A1AFF29B
:1015E0006F100CF082FF0DF066FE00BFFEE70000FA
:1015F000360000203C0000200400002000000020F5
:10160000390000203A0000203B0000200C000020A0
:101610004E657400100000205549000014000020A1
:1016200053656E73000000001800002052464944C4
:1016300000000000080000200D0A3D3D3D3D3D3DFD
:101640003D3D3D3D3D3D3D3D3D3D3D3D3D3D3D3DCA
:101650003D3D3D3D3D3D3D3D3D3D3D3D3D3D3D3DBA
:101660003D3D0D0A000000005B53595354454D5D4C
:1016700020D5FDD4DAC6F4B6AFD3B2BCFED7D4BC05
:10168000ECB3CCD0F22E2E2E0D0A00005BD7D4BCCA
:10169000EC5D204C4544D6B8CABEB5C6B3F5CABC4D
:1016A000BBAF2E2E2E2E2E2E4F4B0D0A000000000B
:1016B0005BD7D4BCEC5D204C4344C6C1C4BBB5D79A
:1016C000B2E3B3F5CABCBBAF2E2E2E2E4F4B0D0A84
:1016D00000000000940000205BD7D4BCEC5D20B576
:1016E000E7C8DDB4A5C3FEC6C1B3F5CABCBBAF2E07
:1016F0002E2E2E2E4F4B0D0A000000005BD7D4BCBF
:10170000EC5D205732355131323820466C617368B8
:10171000B3F5CABCBBAF2E2E4F4B0D0A0000000024
:101720005BD7D4BCEC5D20D6D0CEC4D7D6BFE2CF39
:10173000B5CDB3B3F5CABCBBAF2E2E2E4F4B0D0AA1
:10174000000000005B53595354454D5D20D5FDD436
:10175000DAC6F4B6AF204672656552544F5320CABC
:10176000B5CAB1B2D9D7F7CFB5CDB32E2E2E0D0A4B
:10177000000000003D3D3D3D3D3D3D3D3D3D3D3D8D
:101780003D3D3D3D3D3D3D3D3D3D3D3D3D3D3D3D89
:101790003D3D3D3D3D3D3D3D3D3D3D3D0D0A0D0A3F
:1017A0000000000041C7F82D3138BAC50000000024
:1017B000E00B002034000020000C002073746172E4
:1017C000745F7461736B0000704700BFFEE700BF79
:1017D000FEE700BFFEE700BFFEE770470CB5002044
:1017E000019000907648006840F4803074490860A9
:1017F00000BF7348006800F4003000900198401C5E
:101800000190009818B90198B0F5A04FF1D16C483B
:10181000006800F4003010B10120009001E00020C9
:1018200000900098012846D165484030006840F09B
:1018300080506349403108606248006840F440408D
:10184000604908605E48083000685D4908310860FA
:101850000846006840F4004008600846006840F40C
:10186000A05008605848091F0860081F006840F031
:101870008070091F086000BF5148006800F00070C8
:101880000028F9D040F20570504908604C480830F3
:10189000006820F003004A490831086008460068E3
:1018A00040F00200086000BF45480830006800F0C2
:1018B0000C000828F8D10CBD10B54548006840F46C
:1018C0007000434908603E48006840F001003C4910
:1018D000086000203A4908310860394800683D49ED
:1018E0000840374908603C48091D0860081F006827
:1018F00020F48020091F0860002031490C31086065
:10190000FFF76CFF4FF0006031498039086010BD6F
:1019100070B500200022022300240221284D083542
:101920002D6805F00C0020B1042806D0082834D119
:1019300007E02A4D2A4E356033E02A4D284E3560A7
:101940002FE01F4D2D1D2D68C5F380541C4D2D1DFE
:101950002D6805F03F0154B1224DB5FBF1F5184E4D
:10196000361D3668C6F3881605FB06F209E01B4DE6
:10197000B5FBF1F5124E361D3668C6F3881605FB29
:1019800006F20F4D2D1D2D68C5F301456D1C6B0032
:10199000B2FBF3F5124E356003E0104D104E35608A
:1019A00000BF00BF064D08352D68C5F303150E4E68
:1019B000705D0B4D2D68C540094E356070BD00004F
:1019C000003802400070004008544007003C0240CC
:1019D00088ED00E0FFFFF6FE103000240024F40044
:1019E0004C00002000127A005000002001B5BDF824
:1019F00000000090BDF80000FE49088008BD01B558
:101A0000BDF800000090BDF80000FA49891C08806C
:101A100008BD08B5F748801C00880090BDF800009C
:101A200008BDF44A10804FF0D842A2F880107047E9
:101A300010B504462046FFF7D9FF052004F081F8D1
:101A4000FFF7E7FF10BDEC480089EA4908807047BE
:101A5000E849891C0880704730B5014601F01F0431
:101A6000C1F34513CA0AE50205EB43151544A8B2B4
:101A700030BD00BF011EA0F10102D0B2FAD1704703
:101A800010B502460C46DC48808841F66311884256
:101A900047D1D9488079A8B9D7480088401E801A14
:101AA00082B2D5494889FFF7A1FF0020FFF7A7FFC1
:101AB0000020FFF7A4FF1012FFF7A1FFD0B2FFF73D
:101AC0009EFF16E0CC494889FFF790FF1012FFF700
:101AD00096FFD0B2FFF793FFC7490988491EC1F3AB
:101AE0000F20FFF78CFFC4490978491EC8B2FFF7E1
:101AF00086FFC1498889FFF779FF2012FFF77FFF32
:101B0000E0B2FFF77CFFBC494988491EC1F30F20B2
:101B1000FFF775FFB8498978491EC8B2FFF76FFF14
:101B20003AE0B548808845F21051884220D1B24948
:101B30004889FFF75BFF1012FFF761FFAE49498943
:101B4000491C88B2FFF752FFD0B2FFF758FFAA49ED
:101B50008889FFF74BFF2012FFF751FFA6498989BB
:101B6000491C88B2FFF742FFE0B2FFF748FF13E0DD
:101B7000A1494889FFF73AFF1012FFF740FFD0B2A2
:101B8000FFF73DFF9C498889FFF730FF2012FFF7E0
:101B900036FFE0B2FFF733FF10BD2DE9F0410546F7
:101BA0000E4600240027A04693480088A84203DD83
:101BB00091484088B04202DC0020BDE8F081314607
:101BC0002846FFF75DFF8C48808845F21051884217
:101BD00004D14FF43850FFF709FF02E02E20FFF741
:101BE00005FFFFF716FF04468348808841F663111E
:101BF000884201D12046E0E7FFF70BFF04467E480C
:101C0000808847F29671884201D12046D5E7FFF7D8
:101C100000FF8046E7B24FF6FF7000EA0727E012A8
:101C2000C002B91240EA411040EAE820C5E700B519
:101C30007148808845F21051884204D14FF42450F5
:101C4000FFF7D4FE02E02920FFF7D0FE00BD00B56B
:101C50006948808845F21051884204D14FF42050E1
:101C6000FFF7C4FE02E02820FFF7C0FE00BDF0B57C
:101C700005460024002760488079012805D15E4888
:101C8000808841F66311884208D15B488079F0B9B9
:101C90005948808841F66311884218D1082D15D221
:101CA000DFE805F00406080A0C0E101206250DE008
:101CB00007250BE0042509E0052507E0012505E0DF
:101CC000002503E0032501E0022500BF00BF082D29
:101CD0001CD2DFE805F00406090C0F12151800BF2E
:101CE00014E044F0800411E044F040040EE044F0BD
:101CF000C0040BE044F0200408E044F0600405E078
:101D000044F0A00402E044F0E00400BF00BF3A4801
:101D1000808845F21051884202D14FF4585700E0B4
:101D200036273548808849F2413188420BD0324805
:101D3000808847F28971884205D02F48808847F211
:101D40009671884201D144F0080421463846FFF7D5
:101D500068FE2948808841F6631188421DD004F04E
:101D6000200068B12448008823494988884214DA51
:101D700021480688408820490880084646800CE0B3
:101D80001D4800881C494988884206DD1A48068893
:101D9000408819490880084646801748808845F2DF
:101DA0001051884257D114494889FFF71FFE00207F
:101DB000FFF725FE10494989491C88B2FFF716FE36
:101DC0000020FFF71CFE0C494989891C88B2FFF7E7
:101DD0000DFE09490988491EC1F30F20FFF70FFEC8
:101DE00005494989C91C88B2FFF700FE02490978F4
:101DF000491E03E07E00006C360E0020C8B2FFF7DB
:101E0000FEFDFE498889FFF7F1FD0020FFF7F7FD91
:101E1000FA498989491C88B2FFF7E8FD0020FFF7DD
:101E2000EEFDF6498989891C88B2FFF7DFFDF34989
:101E30004988491EC1F30F20FFF7E1FDEF49898969
:101E4000C91C88B2FFF7D2FDEC498978491EC8B297
:101E5000FFF7D5FD2DE0E9494889FFF7C7FD0020D0
:101E6000FFF7CDFD0020FFF7CAFDE4490988491EB0
:101E7000C1F30F20FFF7C3FDE0490978491EC8B23E
:101E8000FFF7BDFDDD498889FFF7B0FD0020FFF7B2
:101E9000B6FD0020FFF7B3FDD8494988491EC1F3BC
:101EA0000F20FFF7ACFDD5498978491EC8B2FFF76E
:101EB000A6FDF0BD30B504460D4629462046FFF785
:101EC000DFFDFFF7C0FDCE480088CE49088030BD59
:101ED00030B504460D46C948808845F21051884205
:101EE00020D1C6494889FFF781FD2012FFF787FD01
:101EF000C2494989491C88B2FFF778FDE0B2FFF773
:101F00007EFDBE498889FFF771FD2812FFF777FD36
:101F1000BA498989491C88B2FFF768FDE8B2FFF722
:101F20006EFD42E0B548808841F66311884228D1B1
:101F3000B248807920B9B1480088401E001B84B2A5
:101F4000AE494889FFF752FD2012FFF758FDE0B275
:101F5000FFF755FD2012FFF752FDE0B2FFF74FFDEE
:101F6000A6498889FFF742FD2812FFF748FDE8B22D
:101F7000FFF745FD2812FFF742FDE8B2FFF73FFDEE
:101F800013E09E494889FFF731FD2012FFF737FD26
:101F9000E0B2FFF734FD99498889FFF727FD281241
:101FA000FFF72DFDE8B2FFF72AFD94480089954917
:101FB000891E08804FF0D840A0F8802030BD70B551
:101FC0002DED048B0446BE20FFF710FD0520FFF722
:101FD00016FD204610F092F841EC190B9FED8A0B8C
:101FE00053EC102B10F0DAF841EC180B10F042F81B
:101FF00085B22846FFF703FD0120FFF700FDFF2013
:10200000FFF7FDFC0020FFF7FAFC0020FFF7F7FCCC
:10201000BDEC048B70BD10B5044678488471002C6B
:1020200058D1F020754908804FF4A07048800846C8
:10203000808845F21051884210D14FF430506F49DA
:1020400008814FF4285048814FF42C5088814FF478
:10205000F07008804FF4487048801AE06748808824
:1020600041F6631188420DD12C20644908812B2050
:1020700048812A2088814FF4F07008804FF448701E
:10208000488006E02C205D4908812A2048812B20C9
:1020900088815A48808845F21031884205D05748D7
:1020A000808847F29671884206D14FF4A070534958
:1020B00008804FF4F07048805048808849F6060147
:1020C000884258D14FF4F0704C4908804FF4487062
:1020D000488050E04FF4A07048490880F0204880C4
:1020E0000846808845F21051884210D14FF4305094
:1020F000424908814FF4285048814FF42C50888180
:102100004FF4487008804FF4F070488020E03B485E
:10211000808841F66311884205D03848808849F6A6
:10212000060188420DD12C20344908812A2048819B
:102130002B2088814FF4487008804FF4F07048805D
:1021400006E02C202D4908812A2048812B208881F7
:102150002A48808845F21031884205D02748808877
:1021600047F29671884206D14FF4F07023490880F7
:102170004FF4A07048800020FFF779FD10BD2DE9D5
:10218000F04104460D461E46A018401E87B2A8190D
:10219000401E1FFA80F81948808841F66311884272
:1021A0003CD116488079012838D014480088801A1C
:1021B000001B84B2A819401E86B210494889FFF757
:1021C00015FC2012FFF71BFCE0B2FFF718FCA1186A
:1021D000491EC1F30F20FFF712FCA118491EC8B217
:1021E000FFF70DFC05498889FFF700FC2812FFF76F
:1021F00006FCE8B2FFF703FC301209E0360E0020BF
:10220000600000208000006C6666666666660440BA
:10221000FFF7F5FBF0B2FFF7F2FB6EE0FE488088B7
:1022200045F21051884246D1FB494889FFF7DEFB51
:102230002012FFF7E4FBF8494989491C88B2FFF7EF
:10224000D5FBE0B2FFF7DBFBF3494989891C88B273
:10225000FFF7CCFB3812FFF7D2FBEF494989C91CC5
:1022600088B2FFF7C3FBF8B2FFF7C9FBEA498889D8
:10227000FFF7BCFB2812FFF7C2FBE7498989491C1D
:1022800088B2FFF7B3FBE8B2FFF7B9FBE2498989EF
:10229000891C88B2FFF7AAFB4FEA2820FFF7AFFBA3
:1022A000DD498989C91C88B2FFF7A0FB08F0FF004F
:1022B000FFF7A5FB21E0D8494889FFF797FB2012DB
:1022C000FFF79DFBE0B2FFF79AFB3812FFF797FB91
:1022D000F8B2FFF794FBD0498889FFF787FB2812F3
:1022E000FFF78DFBE8B2FFF78AFB4FEA2820FFF7E4
:1022F00086FB08F0FF00FFF782FBBDE8F08170B5B8
:1023000004460026C4480588408845430021084605
:10231000FFF7B6FBFFF797FB00BF02E0BF48048062
:10232000761CAE42FAD370BD00B5A1B0002020905B
:1023300001217A2004F04CFB0121084604F080FBC7
:102340004FF400401E9001208DF87C0000208DF895
:102350007E0002208DF87D0001208DF87F001EA9EF
:10236000AF4803F0B3FD4CF233701E9002208DF89D
:102370007C0000208DF87E0003208DF87D00012078
:102380008DF87F001EA9A74803F0A0FD4FF68070CE
:102390001E9002208DF87C0000208DF87E00032026
:1023A0008DF87D0001208DF87F001EA99E4803F066
:1023B0008DFD4FF480501E9002208DF87C0000208F
:1023C0008DF87E0003208DF87D0001208DF87F00C0
:1023D0001EA9964803F07AFD4FF480501E9002200B
:1023E0008DF87C0000208DF87E0003208DF87D00A4
:1023F00001208DF87F001EA98D4803F067FD0C2297
:102400000021884803F0EDFD0C220121854803F0EE
:10241000E8FD0C220421834803F0E3FD0C22052192
:10242000804803F0DEFD0C2208217E4803F0D9FD30
:102430000C2209217B4803F0D4FD0C220A217948A3
:1024400003F0CFFD0C220E21764803F0CAFD0C22CA
:102450000F21744803F0C5FD0C220721724803F0D8
:10246000C0FD0C220821704803F0BBFD0C2209219D
:102470006D4803F0B6FD0C220A216B4803F0B1FD54
:102480000C220B21684803F0ACFD0C221146664873
:1024900003F0A7FD0C220D21634803F0A2FD0C22DE
:1024A0000E21614803F09DFD0C220F215E4803F0D0
:1024B00098FD0C2211465D4803F093FD0C22114655
:1024C0005B4803F08EFD0F200890002009903C200F
:1024D0000A9000200B900C900D900E900920019016
:1024E00000200290082003900020049005900690A0
:1024F000079006200F90002010901190102012904D
:102500000020139015901490169017904FF480505F
:102510001890002019904FF480401A9000201B90D2
:1025200008A81C9001A81D900FA803F0AEFD012182
:10253000062003F035FE322003F025FBD320FFF701
:1025400055FAFFF766FA34498880FFF762FA324994
:102550008880FFF75EFA30498880084680884FF609
:10256000FF7101EA00202C498880FFF752FA2A49BE
:1025700089880843284988800846808849F2413183
:1025800088427DD00420FFF731FAFFF742FA224952
:102590008880FFF73EFA20498880FFF73AFA1E4903
:1025A0008880084680884FF6FF7101EA00201A49AA
:1025B0008880FFF72EFA18498988084316498880D1
:1025C0000846808848F25251884203D147F2897008
:1025D000114988801048808847F289718842D0D09C
:1025E000D420FFF703FAFFF714FA0B498880FFF7AE
:1025F00010FA09498880FFF70CFA074988800846D5
:1026000080884FF6FF7101EA002003498880FFF7B8
:1026100000FA014989880DE0360E00208000006C28
:1026200000040240000C024000100240001402406E
:10263000001802400843FE4988800846808845F219
:10264000103188429DD0D320FFF7D0F9FFF7E1F990
:10265000F7498880FFF7DDF9F5498880FFF7D9F958
:10266000F3498880084680884FF6FF7101EA002010
:10267000EF498880FFF7CDF9ED498988084300E0EC
:1026800095E0EB4988800846808847F29671884239
:10269000A5D055214FF47040FFF7C3F9AA214FF29E
:1026A0000100FFF7BEF952214FF20200FFF7B9F91E
:1026B00008214FF20300FFF7B4F901214FF20400A3
:1026C000FFF7AFF94FF44540FFF790F9FFF7A1F995
:1026D000D7498880084680884FF6FF7101EA0020BC
:1026E000D34988804CF20150FFF780F9FFF791F948
:1026F000CF4989880843CE498880052003F043FAF2
:10270000CB488088B0F5004F03D145F21050C8493E
:102710008880C748808845F21051884247D0D3202E
:10272000FFF764F9FFF775F9C1498880FFF771F980
:10273000BF498880FFF76DF9BD49888008468088C9
:102740004FF6FF7101EA0020B9498880FFF761F96F
:10275000B74989880843B64988800846808849F681
:102760000601884223D0A120FFF740F9FFF751F975
:10277000AF498880FFF74DF9AD49888008468088C9
:102780004FF6FF7101EA0020A9498880FFF741F95F
:10279000A74989880843A64988800846808845F269
:1027A0006171884203D141F66310A1498880A04835
:1027B000808849F24131884223D09D48808847F281
:1027C000897188421DD09A48808845F2103188422C
:1027D00017D09748808845F21051884211D094480C
:1027E000808841F6631188420BD09148808847F277
:1027F0009671884205D08E48808849F60601884245
:102800002CD18C48006820F00F004FF02041C1F817
:102810001C010846D0F81C0120F47060C1F81C01AE
:102820000846D0F81C0140F00400C1F81C018048A3
:10283000808847F28971884208D17E48006840F458
:1028400080604FF02041C1F81C0107E07948006822
:1028500040F480604FF02041C1F81C017448818829
:1028600075A00EF01DFE7248808849F24131884201
:102870007ED1CF20FFF7BAF80020FFF7C0F8C120C3
:10288000FFF7BDF83020FFF7BAF8ED20FFF7AEF8FC
:102890006420FFF7B4F80320FFF7B1F81220FFF728
:1028A000AEF88120FFF7ABF8E820FFF79FF885200E
:1028B000FFF7A5F81020FFF7A2F87A20FFF79FF89E
:1028C000CB20FFF793F83920FFF799F82C20FFF77A
:1028D00096F80020FFF793F83420FFF790F80220D5
:1028E000FFF78DF8F720FFF781F82020FFF787F832
:1028F000EA20FFF77BF80020FFF781F80020FFF7C0
:102900007EF8C020FFF772F81B20FFF778F8C1208F
:10291000FFF76CF80120FFF772F8C520FFF766F8A3
:102920003020FFF76CF83020FFF769F8C720FFF779
:102930005DF8B720FFF763F83620FFF757F8482017
:10294000FFF75DF83A20FFF751F85520FFF757F8E9
:10295000B120FFF74BF80020FFF751F81A20FFF7DE
:102960004EF8B620FFF742F80A20FFF748F800E0DB
:10297000A4E0A220FFF743F8F220FFF737F8002089
:10298000FFF73DF82620FFF731F80120FFF737F871
:10299000E020FFF72BF80F20FFF731F82A20FFF790
:1029A0002EF82820FFF72BF80820FFF728F80E2034
:1029B000FFF725F80820FFF722F85420FFF71FF84B
:1029C000A920FFF71CF84320FFF719F80A20FFF7AA
:1029D00016F80F20FFF713F80020FFF710F800207B
:1029E000FFF70DF80020FFF70AF80020FFF707F8BF
:1029F000E120FEF7FBFF0020FFF701F81520FEF7AE
:102A0000FEFF1720FEF7FBFF0720FEF7F8FF11205F
:102A1000FEF7F5FF0620FEF7F2FF2B20FEF7EFFF93
:102A20005620FEF7ECFF3C20FEF7E9FF05200BE007
:102A3000360E00201C0100A0204C43442049443A9B
:102A400025780D0A00000000FEF7D9FF1020FEF7E0
:102A5000D6FF0F20FEF7D3FF3F20FEF7D0FF3F2029
:102A6000FEF7CDFF0F20FEF7CAFF2B20FEF7BEFFBB
:102A70000020FEF7C4FF0020FEF7C1FF0120FEF793
:102A8000BEFF3F20FEF7BBFF2A20FEF7AFFF00206E
:102A9000FEF7B5FF0020FEF7B2FF0020FEF7AFFF04
:102AA000EF20FEF7ACFF1120FEF7A0FF782003F027
:102AB0006AF82920FEF79AFF02F03ABBFE488088A8
:102AC00047F2897188427CD11120FEF78FFF782070
:102AD00003F059F83620FEF789FF0020FEF78FFF3C
:102AE0003A20FEF783FF0520FEF789FFB220FEF7AC
:102AF0007DFF0C20FEF783FF0C20FEF780FF0020F7
:102B0000FEF77DFF3320FEF77AFF3320FEF777FFD5
:102B1000B720FEF76BFF3520FEF771FFBB20FEF7F5
:102B200065FF3220FEF76BFFC020FEF75FFF0C2031
:102B3000FEF765FFC220FEF759FF0120FEF75FFF99
:102B4000C320FEF753FF1020FEF759FFC420FEF705
:102B50004DFF2020FEF753FFC620FEF747FF0F2052
:102B6000FEF74DFFD020FEF741FFA420FEF747FF00
:102B7000A120FEF744FFE020FEF738FFD020FEF74B
:102B80003EFF0020FEF73BFF0220FEF738FF072044
:102B9000FEF735FF0A20FEF732FF2820FEF72FFF51
:102BA0003220FEF72CFF4420FEF729FF4220FEF7DB
:102BB00026FF0620FEF723FF0E20FEF720FF12203F
:102BC00000E056E0FEF71BFF1420FEF718FF172069
:102BD000FEF715FFE120FEF709FFD020FEF70FFFFB
:102BE0000020FEF70CFF0220FEF709FF0720FEF78A
:102BF00006FF0A20FEF703FF2820FEF700FF312022
:102C0000FEF7FDFE5420FEF7FAFE4720FEF7F7FE22
:102C10000E20FEF7F4FE1C20FEF7F1FE1720FEF753
:102C2000EEFE1B20FEF7EBFE1E20FEF7E8FE2A203C
:102C3000FEF7DCFE0020FEF7E2FE0020FEF7DFFEDE
:102C40000020FEF7DCFEEF20FEF7D9FE2B20FEF77A
:102C5000CDFE0020FEF7D3FE0020FEF7D0FE0120BF
:102C6000FEF7CDFE3F20FEF7CAFE2920FEF7BEFE8E
:102C700022E79148808845F21031884240F07C87F5
:102C8000ED20FEF7B3FE0120FEF7B9FEFE20FEF7B1
:102C9000B6FEEE20FEF7AAFEDE20FEF7B0FE2120F3
:102CA000FEF7ADFEF120FEF7A1FE0120FEF7A7FE24
:102CB000DF20FEF79BFE1020FEF7A1FEC420FEF7EA
:102CC00095FE8F20FEF79BFEC620FEF78FFE0020AC
:102CD000FEF795FEE220FEF792FEE220FEF78FFE61
:102CE000E220FEF78CFEBF20FEF780FEAA20FEF752
:102CF00086FEB020FEF77AFE0D20FEF780FE002053
:102D0000FEF77DFE0D20FEF77AFE0020FEF777FE2F
:102D10001120FEF774FE0020FEF771FE1920FEF769
:102D20006EFE0020FEF76BFE2120FEF768FE0020FD
:102D3000FEF765FE2D20FEF762FE0020FEF75FFE27
:102D40003D20FEF75CFE0020FEF759FE5D20FEF7F9
:102D500056FE0020FEF753FE5D20FEF750FE0020D9
:102D6000FEF74DFEB120FEF741FE8020FEF747FE44
:102D70000020FEF744FE8B20FEF741FE0020FEF708
:102D80003EFE9620FEF73BFE0020FEF738FEB22006
:102D9000FEF72CFE0020FEF732FE0020FEF72FFE8D
:102DA0000220FEF72CFE0020FEF729FE0320FEF78E
:102DB00026FE0020FEF723FEB320FEF717FE0020BC
:102DC000FEF71DFE0020FEF71AFE0020FEF717FE9C
:102DD0000020FEF714FE0020FEF711FE0020FEF793
:102DE0000EFE0020FEF70BFE0020FEF708FE00207E
:102DF000FEF705FE0020FEF702FE0020FEF7FFFDB5
:102E00000020FEF7FCFD0020FEF7F9FD0020FEF794
:102E1000F6FD0020FEF7F3FD0020FEF7F0FD002098
:102E2000FEF7EDFD0020FEF7EAFD0020FEF7E7FDCE
:102E30000020FEF7E4FD0020FEF7E1FD0020FEF794
:102E4000DEFD0020FEF7DBFD0020FEF7D8FDB420FC
:102E5000FEF7CCFD8B20FEF7D2FD0020FEF7CFFD64
:102E60009620FEF7CCFD0020FEF7C9FDA120FEF75D
:102E7000C6FD0020FEF7C3FDB520FEF7B7FD02201A
:102E8000FEF7BDFD0020FEF7BAFD0320FEF7B7FDFB
:102E90000020FEF7B4FD0420FEF7B1FD0020FEF790
:102EA000AEFDB620FEF7A2FD0020FEF7A8FD002033
:102EB000FEF7A5FDB72001E0360E0020FEF796FDD7
:102EC0000020FEF79CFD0020FEF799FD3F20FEF755
:102ED00096FD0020FEF793FD5E20FEF790FD00209A
:102EE000FEF78DFD6420FEF78AFD0020FEF787FDCA
:102EF0008C20FEF784FD0020FEF781FDAC20FEF75C
:102F00007EFD0020FEF77BFDDC20FEF778FD002033
:102F1000FEF775FD7020FEF772FD0020FEF76FFDD5
:102F20009020FEF76CFD0020FEF769FDEB20FEF718
:102F300066FD0020FEF763FDDC20FEF760FD00204B
:102F4000FEF75DFDB820FEF751FD0020FEF757FDAE
:102F50000020FEF754FD0020FEF751FD0020FEF793
:102F60004EFD0020FEF74BFD0020FEF748FD00203F
:102F7000FEF745FD0020FEF742FDBA20FEF736FDC4
:102F80002420FEF73CFD0020FEF739FD0020FEF76F
:102F900036FD0020FEF733FDC120FEF727FD20207F
:102FA000FEF72DFD0020FEF72AFD5420FEF727FD39
:102FB0000020FEF724FDFF20FEF721FD0020FEF794
:102FC0001EFDC220FEF712FD0A20FEF718FD0020AC
:102FD000FEF715FD0420FEF712FD0020FEF70FFDA1
:102FE000C320FEF703FD3C20FEF709FD0020FEF79D
:102FF00006FD3A20FEF703FD0020FEF700FD392014
:10300000FEF7FDFC0020FEF7FAFC3720FEF7F7FC88
:103010000020FEF7F4FC3C20FEF7F1FC0020FEF758
:10302000EEFC3620FEF7EBFC0020FEF7E8FC322039
:10303000FEF7E5FC0020FEF7E2FC2F20FEF7DFFCA8
:103040000020FEF7DCFC2C20FEF7D9FC0020FEF768
:10305000D6FC2920FEF7D3FC0020FEF7D0FC26206A
:10306000FEF7CDFC0020FEF7CAFC2420FEF7C7FCCB
:103070000020FEF7C4FC2420FEF7C1FC0020FEF770
:10308000BEFC2320FEF7BBFC0020FEF7B8FC3C2072
:10309000FEF7B5FC0020FEF7B2FC3620FEF7AFFCD1
:1030A0000020FEF7ACFC3220FEF7A9FC0020FEF762
:1030B000A6FC2F20FEF7A3FC0020FEF7A0FC2C208E
:1030C000FEF79DFC0020FEF79AFC2920FEF797FCF6
:1030D0000020FEF794FC2620FEF791FC0020FEF76E
:1030E0008EFC2420FEF78BFC0020FEF788FC2420B9
:1030F000FEF785FC0020FEF782FC2320FEF77FFC14
:103100000020FEF77CFCC420FEF770FC6220FEF776
:1031100076FC0020FEF773FC0520FEF770FC002013
:10312000FEF76DFC8420FEF76AFC0020FEF767FCCA
:10313000F020FEF764FC0020FEF761FC1820FEF78B
:103140005EFC0020FEF75BFCA420FEF758FC00208C
:10315000FEF755FC1820FEF752FC0020FEF74FFC4E
:103160005020FEF74CFC0020FEF749FC0C20FEF737
:1031700046FC0020FEF743FC1720FEF740FC002031
:10318000FEF73DFC9520FEF73AFC0020FEF737FCE9
:10319000F320FEF734FC0020FEF731FCE620FEF7BA
:1031A0002EFC0020FEF72BFCC520FEF71FFC322072
:1031B000FEF725FC0020FEF722FC4420FEF71FFC52
:1031C0000020FEF71CFC6520FEF719FC0020FEF72E
:1031D00016FC7620FEF713FC0020FEF710FC88207A
:1031E000FEF70DFC0020FEF70AFCC620FEF7FEFBF2
:1031F0002020FEF704FC0020FEF701FC1720FEF75C
:10320000FEFB0020FEF7FBFB0120FEF7F8FB002091
:10321000FEF7F5FBC720FEF7E9FB0020FEF7EFFB0A
:103220000020FEF7ECFB0020FEF7E9FB0020FEF794
:10323000E6FBC820FEF7DAFB0020FEF7E0FB0020EB
:10324000FEF7DDFB0020FEF7DAFB0020FEF7D7FBE0
:10325000C920FEF7CBFB0020FEF7D1FB0020FEF7D4
:10326000CEFB0020FEF7CBFB0020FEF7C8FB0020C2
:10327000FEF7C5FB0020FEF7C2FB0020FEF7BFFBF8
:103280000020FEF7BCFB0020FEF7B9FB0020FEF794
:10329000B6FB0020FEF7B3FB0020FEF7B0FB0020DA
:1032A000FEF7ADFB0020FEF7AAFB0020FEF7A7FB10
:1032B0000020FEF7A4FBE020FEF798FB1620FEF7A7
:1032C0009EFB0020FEF79BFB1C20FEF798FB0020D6
:1032D000FEF795FB2120FEF792FB0020FEF78FFB07
:1032E0003620FEF78CFB0020FEF789FB4620FEF718
:1032F00086FB0020FEF783FB5220FEF780FB0020B8
:10330000FEF77DFB6420FEF77AFB0020FEF777FBDB
:103310007A20FEF774FB0020FEF771FB8B20FEF78E
:103320006EFB0020FEF76BFB9920FEF768FB002088
:10333000FEF765FBA820FEF762FB0020FEF75FFBAF
:10334000B920FEF75CFB0020FEF759FBC420FEF716
:1033500056FB0020FEF753FBCA20FEF750FB00206F
:10336000FEF74DFBD220FEF74AFB0020FEF747FB9D
:10337000D920FEF744FB0020FEF741FBE020FEF7DA
:103380003EFB0020FEF73BFBF320FEF738FB00205E
:10339000FEF735FBE120FEF729FB1620FEF72FFB99
:1033A0000020FEF72CFB1C20FEF729FB0020FEF777
:1033B00026FB2220FEF723FB0020FEF720FB362011
:1033C000FEF71DFB0020FEF71AFB4520FEF717FB5A
:1033D0000020FEF714FB5220FEF711FB0020FEF741
:1033E0000EFB6420FEF70BFB0020FEF708FB7A20A3
:1033F000FEF705FB0020FEF702FB8B20FEF7FFFA2D
:103400000020FEF7FCFA9920FEF7F9FA0020FEF7FB
:10341000F6FAA820FEF7F3FA0020FEF7F0FAB9203A
:10342000FEF7EDFA0020FEF7EAFAC420FEF7E7FA0D
:103430000020FEF7E4FACA20FEF7E1FA0020FEF7CA
:10344000DEFAD220FEF7DBFA0020FEF7D8FAD82009
:10345000FEF7D5FA0020FEF7D2FAE020FEF7CFFA09
:103460000020FEF7CCFAF320FEF7C9FA0020FEF7A1
:10347000C6FAE220FEF7BAFA0520FEF7C0FA0020ED
:10348000FEF7BDFA0B20FEF7BAFA0020FEF7B7FAF6
:103490001B20FEF7B4FA0020FEF7B1FA3420FEF745
:1034A000AEFA0020FEF7ABFA4420FEF7A8FA00209F
:1034B000FEF7A5FA4F20FEF7A2FA0020FEF79FFACA
:1034C0006120FEF79CFA0020FEF799FA7920FEF7BA
:1034D00096FA0020FEF793FA8820FEF790FA002073
:1034E000FEF78DFA9720FEF78AFA0020FEF787FA9A
:1034F000A620FEF784FA0020FEF781FAB720FEF737
:103500007EFA0020FEF77BFAC220FEF778FA002050
:10351000FEF775FAC720FEF772FA0020FEF76FFA81
:10352000D120FEF76CFA0020FEF769FAD620FEF7EC
:1035300066FA0020FEF763FADD20FEF760FA00204D
:10354000FEF75DFAF320FEF75AFA0020FEF757FA6D
:10355000E320FEF74BFA0520FEF751FA0020FEF7B4
:103560004EFA0A20FEF74BFA0020FEF748FA1C201C
:10357000FEF745FA0020FEF742FA3320FEF73FFA45
:103580000020FEF73CFA4420FEF739FA0020FEF74F
:1035900036FA5020FEF733FA0020FEF730FA6220A8
:1035A000FEF72DFA0020FEF72AFA7820FEF727FA18
:1035B0000020FEF724FA8820FEF721FA0020FEF70B
:1035C0001EFA9720FEF71BFA0020FEF718FAA62035
:1035D000FEF715FA0020FEF712FAB720FEF70FFAF1
:1035E0000020FEF70CFAC220FEF709FA0020FEF7D1
:1035F00006FAC720FEF703FA0020FEF700FAD120F2
:10360000FEF7FDF90020FEF7FAF9D520FEF7F7F9ED
:103610000020FEF7F4F9DD20FEF7F1F90020FEF7B7
:10362000EEF9F320FEF7EBF90020FEF7E8F9E420CD
:10363000FEF7DCF90120FEF7E2F90020FEF7DFF9E2
:103640000120FEF7DCF90020FEF7D9F90220FEF791
:10365000D6F90020FEF7D3F92A20FEF7D0F9002092
:10366000FEF7CDF93C20FEF7CAF90020FEF7C7F9B6
:103670004B20FEF7C4F90020FEF7C1F95D20FEF7EC
:10368000BEF90020FEF7BBF97420FEF7B8F9002060
:10369000FEF7B5F98420FEF7B2F90020FEF7AFF986
:1036A0009320FEF7ACF90020FEF7A9F9A220FEF75F
:1036B000A6F90020FEF7A3F9B320FEF7A0F9002039
:1036C000FEF79DF9BE20FEF79AF90020FEF797F964
:1036D000C420FEF794F90020FEF791F9CD20FEF703
:1036E0008EF90020FEF78BF9D320FEF788F9002031
:1036F000FEF785F9DD20FEF782F90020FEF77FF95D
:10370000F320FEF77CF90020FEF779F9E520FEF7BB
:103710006DF90020FEF773F90020FEF770F9002024
:10372000FEF76DF90020FEF76AF90220FEF767F94F
:103730000020FEF764F92920FEF761F90020FEF76A
:103740005EF93C20FEF75BF90020FEF758F94B20AC
:10375000FEF755F90020FEF752F95D20FEF74FF90C
:103760000020FEF74CF97420FEF749F90020FEF71F
:1037700046F98420FEF743F90020FEF740F9932034
:10378000FEF73DF90020FEF73AF9A220FEF737F9DF
:103790000020FEF734F9B320FEF731F90020FEF7E0
:1037A0002EF9BE20FEF72BF90020FEF728F9C420E1
:1037B000FEF725F90020FEF722F9CD20FEF71FF9CC
:1037C0000020FEF71CF9D320FEF719F90020FEF7C0
:1037D00016F9DC20FEF713F90020FEF710F9F320AC
:1037E000FEF70DF90020FEF70AF9E620FEF7FEF8D5
:1037F0001120FEF704F90020FEF701F93420FEF74E
:10380000FEF80020FEF7FBF85620FEF7F8F800203F
:10381000FEF7F5F87620FEF7F2F80020FEF7EFF855
:103820007720FEF7ECF80020FEF7E9F86620FEF7B7
:10383000E6F80020FEF7E3F88820FEF7E0F8002025
:10384000FEF7DDF89920FEF7DAF80020FEF7D7F84A
:10385000BB20FEF7D4F80020FEF7D1F89920FEF740
:10386000CEF80020FEF7CBF86620FEF7C8F800205F
:10387000FEF7C5F85520FEF7C2F80020FEF7BFF8A6
:103880005520FEF7BCF80020FEF7B9F84520FEF7FA
:10389000B6F80020FEF7B3F84320FEF7B0F800209A
:1038A000FEF7ADF84420FEF7AAF80020FEF7A7F8CF
:1038B000E720FEF79BF83220FEF7A1F80020FEF784
:1038C0009EF85520FEF79BF80020FEF798F876202A
:1038D000FEF795F80020FEF792F86620FEF78FF8C5
:1038E0000020FEF78CF86720FEF789F80020FEF72D
:1038F00086F86720FEF783F80020FEF780F887201F
:10390000FEF77DF80020FEF77AF89920FEF777F8A9
:103910000020FEF774F8BB20FEF771F80020FEF7D8
:103920006EF89920FEF76BF80020FEF768F8772014
:10393000FEF765F80020FEF762F84420FEF75FF816
:103940000020FEF75CF85620FEF759F80020FEF73D
:1039500056F82320FEF753F80020FEF750F83320E6
:10396000FEF74DF80020FEF74AF84520FEF747F82D
:103970000020FEF744F8E820FEF738F80020FEF7B4
:103980003EF80020FEF73BF89920FEF738F80020BB
:10399000FEF735F88720FEF732F80020FEF72FF803
:1039A0008820FEF72CF80020FEF729F87720FEF794
:1039B00026F80020FEF723F86620FEF720F8002006
:1039C000FEF71DF88820FEF71AF80020FEF717F81A
:1039D000AA20FEF714F80020FEF711F8BB20FEF72E
:1039E0000EF80020FEF70BF89920FEF708F80020EB
:1039F000FEF705F86620FEF702F80020FDF7FFFF4E
:103A00005520FDF7FCFF0020FDF7F9FF5520FDF7DD
:103A1000F6FF0020FDF7F3FF4420FDF7F0FF002044
:103A2000FDF7EDFF4420FDF7EAFF0020FDF7E7FF7B
:103A30005520FDF7E4FF0020FDF7E1FFE920FDF749
:103A4000D5FFAA20FDF7DBFF0020FDF7D8FF0020FF
:103A5000FDF7D5FF0020FDF7D2FF0020FDF7C6FFE0
:103A6000AA20FDF7CCFFCF20FDF7C0FF0020FDF717
:103A7000C6FF0020FDF7C3FF0020FDF7C0FF0020B8
:103A8000FDF7BDFF0020FDF7BAFF0020FDF7B7FFEF
:103A90000020FDF7B4FF0020FDF7B1FF0020FDF787
:103AA000AEFF0020FDF7ABFF0020FDF7A8FF0020D0
:103AB000FDF7A5FF0020FDF7A2FF0020FDF79FFF07
:103AC0000020FDF79CFF0020FDF799FF0020FDF787
:103AD00096FFF020FDF78AFF0020FDF790FF5020B1
:103AE000FDF78DFF0020FDF78AFF0020FDF787FF1F
:103AF0000020FDF784FFF320FDF778FF0020FDF79D
:103B00007EFFF920FDF772FF0620FDF778FF1020F9
:103B1000FDF775FF2920FDF772FF0020FDF76FFF0D
:103B20003A20FDF763FF5520FDF769FF1120FDF7EF
:103B30005DFF642002F027F82920FDF757FF3520AC
:103B4000FDF754FF0020FDF75AFF5120FDF74EFF0F
:103B5000FF20FDF754FF5320FDF748FF2C20FDF711
:103B60004EFF5520FDF742FF8220FDF748FF2C2035
:103B7000FDF73CFF01F0DCBAFE48808845F21051A9
:103B800088427DD155214FF47040FDF74AFFAA21AC
:103B90004FF20100FDF745FF52214FF20200FDF701
:103BA00040FF08214FF20300FDF73BFF01214FF2D8
:103BB0000400FDF736FF0D214FF43040FDF731FFD3
:103BC0000D214BF20100FDF72CFF0D214BF20200FD
:103BD000FDF727FF34214FF43640FDF722FF342153
:103BE0004BF20160FDF71DFF34214BF20260FDF73F
:103BF00018FF0D214FF43140FDF713FF0D214BF25B
:103C00000110FDF70EFF0D214BF20210FDF709FF29
:103C100034214FF43740FDF704FF34214BF201709B
:103C2000FDF7FFFE34214BF20270FDF7FAFE002192
:103C30004FF43240FDF7F5FE00214BF20120FDF775
:103C4000F0FE00214BF20220FDF7EBFE24214FF4A1
:103C50003840FDF7E6FE24214BF60100FDF7E1FEBA
:103C600024214BF60200FDF7DCFE01214FF43F401A
:103C7000FDF7D7FE0F214FF43340FDF7D2FE00E0F1
:103C8000FDE30F214BF20130FDF7CBFE0F214BF28C
:103C90000230FDF7C6FE34214FF43940FDF7C1FE76
:103CA00034214BF60110FDF7BCFE34214BF6021017
:103CB000FDF7B7FE08214FF43540FDF7B2FE0821AD
:103CC0004BF20150FDF7ADFE08214BF20250FDF71B
:103CD000A8FE03214FF44240FDF7A3FE24214FF438
:103CE0003A40FDF79EFE24214BF60120FDF799FE98
:103CF00024214BF60220FDF794FE00214FF43C40B6
:103D0000FDF78FFE78214BF60140FDF78AFE00217A
:103D10004BF60240FDF785FE00214FF43D40FDF7D4
:103D200080FE78214BF60150FDF77BFE00214BF61B
:103D30000250FDF776FE00214FF43E40FDF771FE84
:103D400064214BF60160FDF76CFE00214FF45140F9
:103D5000FDF767FE33214DF20110FDF762FE0021F1
:103D60004DF20210FDF75DFE34214DF20310FDF718
:103D700058FE00214DF20410FDF753FE3A214DF29A
:103D80000510FDF74EFE00214DF20610FDF749FE2D
:103D90004A214DF20710FDF744FE00214DF20810B4
:103DA000FDF73FFE5C214DF20910FDF73AFE0021C0
:103DB0004DF20A10FDF735FE81214DF20B10FDF793
:103DC00030FE00214DF20C10FDF72BFEA6214DF226
:103DD0000D10FDF726FE00214DF20E10FDF721FE1D
:103DE000E5214DF20F10FDF71CFE01214DF21010E0
:103DF000FDF717FE13214DF21110FDF712FE012100
:103E00004DF21210FDF70DFE54214DF21310FDF787
:103E100008FE01214DF21410FDF703FE82214DF240
:103E20001510FDF7FEFD01214DF21610FDF7F9FD0D
:103E3000CA214DF21710FDF7F4FD02214DF21810C2
:103E4000FDF7EFFD00214DF21910FDF7EAFD02210B
:103E50004DF21A10FDF7E5FD01214DF21B10FDF7A3
:103E6000E0FD02214DF21C10FDF7DBFD34214DF287
:103E70001D10FDF7D6FD02214DF21E10FDF7D1FDFC
:103E800067214DF21F10FDF7CCFD02214DF22010ED
:103E9000FDF7C7FD84214DF22110FDF7C2FD02217F
:103EA0004DF22210FDF7BDFDA4214DF22310FDF7C8
:103EB000B8FD02214DF22410FDF7B3FDB7214DF2FC
:103EC0002510FDF7AEFD02214DF22610FDF7A9FDEC
:103ED000CF214DF22710FDF7A4FD02214DF228104D
:103EE000FDF79FFDDE214DF22910FDF79AFD02211D
:103EF0004DF22A10FDF795FDF2214DF22B10FDF742
:103F000090FD02214DF22C10FDF78BFDFE214DF2AC
:103F10002D10FDF786FD03214DF22E10FDF781FDDA
:103F200010214DF22F10FDF77CFD03214DF23010D2
:103F3000FDF777FD33214DF23110FDF772FD0321BE
:103F40004DF23210FDF76DFD6D214DF23310FDF78E
:103F500068FD00214FF45240FDF763FD33214DF21F
:103F60000120FDF75EFD00214DF20220FDF759FD15
:103F7000342101E0360E00204DF20320FDF751FD03
:103F800000214DF20420FDF74CFD3A214DF20520B1
:103F9000FDF747FD00214DF20620FDF742FD4A21C5
:103FA0004DF20720FDF73DFD00214DF20820FDF701
:103FB00038FD5C214DF20920FDF733FD00214DF263
:103FC0000A20FDF72EFD81214DF20B20FDF729FD82
:103FD00000214DF20C20FDF724FDA6214DF20D200D
:103FE000FDF71FFD00214DF20E20FDF71AFDE52122
:103FF0004DF20F20FDF715FD01214DF21020FDF7C8
:1040000010FD13214DF21120FDF70BFD01214DF2A2
:104010001220FDF706FD54214DF21320FDF701FD9E
:1040200001214DF21420FDF7FCFC82214DF21520F8
:10403000FDF7F7FC01214DF21620FDF7F2FCCA2135
:104040004DF21720FDF7EDFC02214DF21820FDF78F
:10405000E8FC00214DF21920FDF7E3FC02214DF2AE
:104060001A20FDF7DEFC01214DF21B20FDF7D9FCE3
:1040700002214DF21C20FDF7D4FC34214DF21D200D
:10408000FDF7CFFC02214DF21E20FDF7CAFC67218F
:104090004DF21F20FDF7C5FC02214DF22020FDF757
:1040A000C0FC84214DF22120FDF7BBFC02214DF222
:1040B0002220FDF7B6FCA4214DF22320FDF7B1FC30
:1040C00002214DF22420FDF7ACFCB7214DF2252052
:1040D000FDF7A7FC02214DF22620FDF7A2FCCF211F
:1040E0004DF22720FDF79DFC02214DF22820FDF71F
:1040F00098FCDE214DF22920FDF793FC02214DF2C0
:104100002A20FDF78EFCF2214DF22B20FDF789FCD1
:1041100002214DF22C20FDF784FCFE214DF22D20D2
:10412000FDF77FFC03214DF22E20FDF77AFC1021D4
:104130004DF22F20FDF775FC03214DF23020FDF7E5
:1041400070FC33214DF23120FDF76BFC03214DF261
:104150003220FDF766FC6D214DF23320FDF761FC46
:1041600000214FF45340FDF75CFC33214DF2013048
:10417000FDF757FC00214DF20230FDF752FC3421CF
:104180004DF20330FDF74DFC00214DF20430FDF7F8
:1041900048FC3A214DF20530FDF743FC00214DF279
:1041A0000630FDF73EFC4A214DF20730FDF739FCA1
:1041B00000214DF20830FDF734FC5C214DF209304E
:1041C000FDF72FFC00214DF20A30FDF72AFC81217A
:1041D0004DF20B30FDF725FC00214DF20C30FDF7C0
:1041E00020FCA6214DF20D30FDF71BFC00214DF205
:1041F0000E30FDF716FCE5214DF20F30FDF711FCF6
:1042000001214DF21030FDF70CFC13214DF211305D
:10421000FDF707FC01214DF21230FDF702FC54219D
:104220004DF21330FDF7FDFB01214DF21430FDF787
:10423000F8FB82214DF21530FDF7F3FB01214DF221
:104240001630FDF7EEFBCA214DF21730FDF7E9FB02
:1042500002214DF21830FDF7E4FB00214DF2193038
:10426000FDF7DFFB02214DF21A30FDF7DAFB0121E9
:104270004DF21B30FDF7D5FB02214DF21C30FDF74E
:10428000D0FB34214DF21D30FDF7CBFB02214DF266
:104290001E30FDF7C6FB67214DF21F30FDF7C1FB55
:1042A00002214DF22030FDF7BCFB84214DF221307C
:1042B000FDF7B7FB02214DF22230FDF7B2FBA4213E
:1042C0004DF22330FDF7ADFB02214DF22430FDF716
:1042D000A8FBB7214DF22530FDF7A3FB02214DF2DB
:1042E0002630FDF79EFBCF214DF22730FDF799FBDD
:1042F00002214DF22830FDF794FBDE214DF22930EA
:10430000FDF78FFB02214DF22A30FDF78AFBF221E7
:104310004DF22B30FDF785FB02214DF22C30FDF7DD
:1043200080FBFE214DF22D30FDF77BFB03214DF28A
:104330002E30FDF776FB10214DF22F30FDF771FB8B
:1043400003214DF23030FDF76CFB33214DF231305B
:10435000FDF767FB03214DF23230FDF762FB6D2163
:104360004DF23330FDF75DFB00214FF45440FDF773
:1043700058FB33214DF20140FDF753FB00214DF274
:104380000240FDF74EFB34214DF20340FDF749FB9F
:1043900000214DF20440FDF744FB3A214DF2054067
:1043A000FDF73FFB00214DF20640FDF73AFB4A21A5
:1043B0004DF20740FDF735FB00214DF20840FDF7B7
:1043C00030FB5C214DF20940FDF72BFB00214DF243
:1043D0000A40FDF726FB81214DF20B40FDF721FB42
:1043E00000214DF20C40FDF71CFBA6214DF20D40C3
:1043F000FDF717FB00214DF20E40FDF712FBE52102
:104400004DF20F40FDF70DFB01214DF21040FDF77D
:1044100008FB13214DF21140FDF703FB01214DF282
:104420001240FDF7FEFA54214DF21340FDF7F9FA60
:1044300001214DF21440FDF7F4FA82214DF21540AE
:10444000FDF7EFFA01214DF21640FDF7EAFACA2115
:104450004DF21740FDF7E5FA02214DF21840FDF745
:10446000E0FA00214DF21940FDF7DBFA02214DF28E
:104470001A40FDF7D6FA01214DF21B4000E005E39A
:10448000FDF7CFFA02214DF21C40FDF7CAFA3421A4
:104490004DF21D40FDF7C5FA02214DF21E40FDF719
:1044A000C0FA67214DF21F40FDF7BBFA02214DF221
:1044B0002040FDF7B6FA84214DF22140FDF7B1FA14
:1044C00002214DF22240FDF7ACFAA4214DF2234027
:1044D000FDF7A7FA02214DF22440FDF7A2FAB72119
:1044E0004DF22540FDF79DFA02214DF22640FDF7E1
:1044F00098FACF214DF22740FDF793FA02214DF2B1
:104500002840FDF78EFADE214DF22940FDF789FAA9
:1045100002214DF22A40FDF784FAF2214DF22B40A0
:10452000FDF77FFA02214DF22C40FDF77AFAFE21C9
:104530004DF22D40FDF775FA03214DF22E40FDF7A7
:1045400070FA10214DF22F40FDF76BFA03214DF266
:104550003040FDF766FA33214DF23140FDF761FA44
:1045600003214DF23240FDF75CFA6D214DF23340EC
:10457000FDF757FA00214FF45540FDF752FA332169
:104580004DF20150FDF74DFA00214DF20250FDF7BA
:1045900048FA34214DF20350FDF743FA00214DF261
:1045A0000450FDF73EFA3A214DF20550FDF739FA75
:1045B00000214DF20650FDF734FA4A214DF2075022
:1045C000FDF72FFA00214DF20850FDF72AFA5C2181
:1045D0004DF20950FDF725FA00214DF20A50FDF782
:1045E00020FA81214DF20B50FDF71BFA00214DF20C
:1045F0000C50FDF716FAA6214DF20D50FDF711FAF9
:1046000000214DF20E50FDF70CFAE5214DF20F504E
:10461000FDF707FA01214DF21050FDF702FA1321C0
:104620004DF21150FDF7FDF901214DF21250FDF749
:10463000F8F954214DF21350FDF7F3F901214DF231
:104640001450FDF7EEF982214DF21550FDF7E9F90E
:1046500001214DF21650FDF7E4F9CA214DF2175031
:10466000FDF7DFF902214DF21850FDF7DAF90021CC
:104670004DF21950FDF7D5F902214DF21A50FDF710
:10468000D0F901214DF21B50FDF7CBF902214DF27B
:104690001C50FDF7C6F934214DF21D50FDF7C1F94C
:1046A00002214DF21E50FDF7BCF967214DF21F505B
:1046B000FDF7B7F902214DF22050FDF7B2F9842140
:1046C0004DF22150FDF7ADF902214DF22250FDF7D8
:1046D000A8F9A4214DF22350FDF7A3F902214DF2D0
:1046E0002450FDF79EF9B7214DF22550FDF799F9B9
:1046F00002214DF22650FDF794F9CF214DF22750BB
:10470000FDF78FF902214DF22850FDF78AF9DE21DD
:104710004DF22950FDF785F902214DF22A50FDF79F
:1047200080F9F2214DF22B50FDF77BF902214DF279
:104730002C50FDF776F9FE214DF22D50FDF771F961
:1047400003214DF22E50FDF76CF910214DF22F5040
:10475000FDF767F903214DF23050FDF762F933217F
:104760004DF23150FDF75DF903214DF23250FDF766
:1047700058F96D214DF23350FDF753F900214FF4F4
:104780005640FDF74EF933214DF20160FDF749F92E
:1047900000214DF20260FDF744F934214DF203602F
:1047A000FDF73FF900214DF20460FDF73AF93A2197
:1047B0004DF20560FDF735F900214DF20660FDF779
:1047C00030F94A214DF20760FDF72BF900214DF237
:1047D0000860FDF726F95C214DF20960FDF721F92B
:1047E00000214DF20A60FDF71CF981214DF20B60AA
:1047F000FDF717F900214DF20C60FDF712F9A62123
:104800004DF20D60FDF70DF900214DF20E60FDF740
:1048100008F9E5214DF20F60FDF703F901214DF292
:104820001060FDF7FEF813214DF21160FDF7F9F865
:1048300001214DF21260FDF7F4F854214DF213609E
:10484000FDF7EFF801214DF21460FDF7EAF882213F
:104850004DF21560FDF7E5F801214DF21660FDF708
:10486000E0F8CA214DF21760FDF7DBF802214DF2A6
:104870001860FDF7D6F800214DF21960FDF7D1F868
:1048800002214DF21A60FDF7CCF801214DF21B60B8
:10489000FDF7C7F802214DF21C60FDF7C2F8342184
:1048A0004DF21D60FDF7BDF802214DF21E60FDF7CF
:1048B000B8F867214DF21F60FDF7B3F802214DF201
:1048C0002060FDF7AEF884214DF22160FDF7A9F8D4
:1048D00002214DF22260FDF7A4F8A4214DF22360DD
:1048E000FDF79FF802214DF22460FDF79AF8B721F9
:1048F0004DF22560FDF795F802214DF22660FDF797
:1049000090F8CF214DF22760FDF78BF802214DF290
:104910002860FDF786F8DE214DF22960FDF781F869
:1049200002214DF22A60FDF77CF8F2214DF22B6056
:10493000FDF777F802214DF22C60FDF772F8FE21A9
:104940004DF22D60FDF76DF803214DF22E60FDF75D
:1049500068F810214DF22F60FDF763F803214DF246
:104960003060FDF75EF833214DF23160FDF759F804
:1049700003214DF23260FDF754F86D214DF23360A2
:10498000FDF74FF855214FF47040FDF74AF8AA2182
:104990004FF20100FDF745F852214FF20200FDF7FA
:1049A00040F808214FF20300FDF73BF800214FF2D9
:1049B0000400FDF736F8CC214FF43140FDF731F813
:1049C00000214BF20110FDF72CF805214FF4364081
:1049D000FDF727F870214FF43740FDF722F87021DA
:1049E0004BF20170FDF71DF801214FF43840FDF73F
:1049F00018F803214BF60100FDF713F803214BF6DD
:104A00000200FDF70EF803214BF60300FDF709F84D
:104A100002214FF43C40FDF704F800214BF6014021
:104A2000FCF7FFFF00214BF60240FCF7FAFFD02114
:104A30004FF44940FCF7F5FF02214CF60110FCF75A
:104A4000F0FF50214CF60210FCF7EBFF50214CF622
:104A50000310FCF7E6FF50214CF60410FCF7E1FFD1
:104A600000214FF45450FCF7DCFF55214FF46850FF
:104A7000FCF7D7FF4FF48850FCF7B8FF782001F01F
:104A800060F84FF42450FCF7B1FF51E3FE488088F2
:104A900047F2967188427CD11120FCF7A7FF78205D
:104AA00001F071F83620FCF7A1FF4820FCF7A7FFC2
:104AB0003A20FCF79BFF5520FCF7A1FFF020FCF704
:104AC00095FFC320FCF79BFFF020FCF78FFF96209B
:104AD000FCF795FFB420FCF789FF0120FCF78FFF5E
:104AE000B620FCF783FF0A20FCF789FFA220FCF721
:104AF00086FFB720FCF77AFFC620FCF780FFB920BD
:104B0000FCF774FF0220FCF77AFFE020FCF777FF48
:104B1000C020FCF76BFF8020FCF771FF1620FCF72C
:104B20006EFFC120FCF762FF1920FCF768FFC2206E
:104B3000FCF75CFFA720FCF762FFC520FCF756FFDF
:104B40001620FCF75CFFE820FCF750FF4020FCF744
:104B500056FF8A20FCF753FF0020FCF750FF00208F
:104B6000FCF74DFF2920FCF74AFF1920FCF747FF0F
:104B7000A520FCF744FF3320FCF741FFE020FCF7C1
:104B800035FFF020FCF73BFF0720FCF738FF0D2036
:104B900000E065E0FCF733FF0420FCF730FF052060
:104BA000FCF72DFF1420FCF72AFF3620FCF727FF27
:104BB0005420FCF724FF4C20FCF721FF3820FCF7A1
:104BC0001EFF1320FCF71BFF1420FCF718FF2E20FC
:104BD000FCF715FF3420FCF712FFE120FCF706FF7D
:104BE000F020FCF70CFF1020FCF709FF1420FCF765
:104BF00006FF0E20FCF703FF0C20FCF700FF082047
:104C0000FCF7FDFE3520FCF7FAFE4420FCF7F7FE2A
:104C10004C20FCF7F4FE2620FCF7F1FE1020FCF7F8
:104C2000EEFE1220FCF7EBFE2C20FCF7E8FE322013
:104C3000FCF7E5FEF020FCF7D9FE3C20FCF7DFFE98
:104C4000F020FCF7D3FE6920FCF7D9FE782000F0B5
:104C50009AFF2120FCF7CAFE2920FCF7C7FE67E275
:104C60008948808849F6060188427CD1FF20FCF7FC
:104C7000BDFEFF20FCF7C3FE9820FCF7C0FE062017
:104C8000FCF7BDFEBC20FCF7B1FE0120FCF7B7FE2F
:104C90000F20FCF7B4FE6120FCF7B1FEFF20FCF70B
:104CA000AEFE0120FCF7ABFE0120FCF7A8FE0B20B6
:104CB000FCF7A5FE1020FCF7A2FE3720FCF79FFEB4
:104CC0006320FCF79CFEFF20FCF799FEFF20FCF719
:104CD00096FE0120FCF793FE0120FCF790FE0020D9
:104CE000FCF78DFE0020FCF78AFEFF20FCF787FE14
:104CF0005220FCF784FE0120FCF781FE0020FCF727
:104D00007EFE4020FCF77BFEBD20FCF76FFE0120FD
:104D1000FCF775FE2320FCF772FE4520FCF76FFEC2
:104D20006720FCF76CFE0120FCF769FE2320FCF7EE
:104D300066FE4520FCF763FE6720FCF760FEBE20A0
:104D4000FCF754FE0020FCF75AFE0120FCF757FE4A
:104D5000AB20FCF754FE6020FCF751FE2220FCF74C
:104D60004EFE222000E025E1FCF749FE2220FCF760
:104D700046FE2220FCF743FE2220FCF740FEC7201F
:104D8000FCF734FE3620FCF73AFEED20FCF72EFE51
:104D90007F20FCF734FE0F20FCF731FEC020FCF72B
:104DA00025FE0F20FCF72BFE0B20FCF728FE0A2027
:104DB000FCF725FEFC20FCF719FE0820FCF71FFE7F
:104DC000DF20FCF713FE0020FCF719FE0020FCF7A3
:104DD00016FE0020FCF713FE0020FCF710FE00205A
:104DE000FCF70DFE2020FCF70AFEF320FCF7FEFD89
:104DF0007420FCF704FEB420FCF7F8FD0020FCF75B
:104E0000FEFD0020FCF7FBFD0020FCF7F8FDF7207D
:104E1000FCF7ECFD8220FCF7F2FDB120FCF7E6FD8B
:104E20000020FCF7ECFD1320FCF7E9FD1320FCF754
:104E3000E6FDF220FCF7DAFD8020FCF7E0FD04201F
:104E4000FCF7DDFD4020FCF7DAFD2820FCF7D7FD5C
:104E5000C120FCF7CBFD1720FCF7D1FD8820FCF723
:104E6000CEFD8820FCF7CBFD2020FCF7C8FDE0201C
:104E7000FCF7BCFD0020FCF7C2FD0A20FCF7BFFDDB
:104E80001220FCF7BCFD01E0360E00201020FCF7DC
:104E9000B6FD0E20FCF7B3FD2020FCF7B0FDCC20C2
:104EA000FCF7ADFD0720FCF7AAFD0620FCF7A7FDE7
:104EB0000B20FCF7A4FD0E20FCF7A1FD0F20FCF752
:104EC0009EFD0D20FCF79BFD1520FCF798FD1020A2
:104ED000FCF795FD0020FCF792FDE120FCF786FD34
:104EE0000020FCF78CFD0B20FCF789FD1320FCF75C
:104EF00086FD0D20FCF783FD0E20FCF780FD1B20B6
:104F0000FCF77DFD7120FCF77AFD0620FCF777FDAC
:104F10000620FCF774FD0A20FCF771FD0F20FCF75A
:104F20006EFD0E20FCF76BFD0F20FCF768FD1520D1
:104F3000FCF765FD0C20FCF762FD0020FCF75FFD2F
:104F40002A20FCF753FD0020FCF759FD0020FCF758
:104F500056FD0120FCF753FDDF20FCF750FD2B2010
:104F6000FCF744FD0020FCF74AFD0020FCF747FD5C
:104F70000320FCF744FD1F20FCF741FD3A20FCF71D
:104F800035FD5520FCF73BFD3620FCF72FFD0020BA
:104F9000FCF735FD1120FCF729FD782000F0F3FD2A
:104FA0002920FCF723FD142000F0EDFD2C20FCF758
:104FB0001DFDBDE0FE48808841F663118842F8D1AE
:104FC000E220FCF713FD1D20FCF719FD0220FCF781
:104FD00016FD0420FCF713FD642000F0B2FDE02074
:104FE000FCF704FD0120FCF70AFD0A2000F0CBFDD0
:104FF000E020FCF7FBFC0320FCF701FD0C2000F097
:10500000C2FD0120FCF7F2FC0A2000F0BCFDE62006
:10501000FCF7ECFC2F20FCF7F2FCFF20FCF7EFFC88
:10502000FF20FCF7ECFCB020FCF7E0FC2020FCF7B4
:10503000E6FC0020FCF7E3FC0320FCF7E0FC40F278
:105040001F30FCF7DCFC0120FCF7D9FC40F2DF103C
:10505000FCF7D5FC0020FCF7D2FCB420FCF7C6FC22
:105060000420FCF7CCFC40F21F40FCF7C8FC0020F9
:10507000FCF7C5FC2E20FCF7C2FC0020FCF7BFFCAF
:105080000020FCF7BCFC0020FCF7B9FC0020FCF77A
:10509000B6FCB620FCF7AAFC0220FCF7B0FC4FF4EB
:1050A0000370FCF7ACFC0020FCF7A9FC1720FCF710
:1050B000A6FC1520FCF7A3FC0020FCF7A0FC0020B8
:1050C000FCF79DFCF020FCF791FC0320FCF797FC1B
:1050D0002920FCF78BFCD020FCF788FC0020FCF793
:1050E0008EFCBE20FCF782FC0520FCF788FCFE202D
:1050F000FCF785FC0120FCF782FC0020FCF77FFC1C
:105100000020FCF77CFC0020FCF779FCB820FCF7C1
:105110006DFC0320FCF773FC0120FCF770FCBA2047
:10512000FCF764FC0120FCF76AFC6420FCF747FFF5
:105130000020FCF770FF01209E4908604FF6FF70C9
:10514000FDF7DDF821B000BD2DE9F04F05460E4614
:1051500017469846DDF824A04FF0000B781B401C42
:105160001FFA80FB344614E021462846FCF788FCF1
:10517000FCF769FC4FF0000907E04FF0D840A0F8B9
:1051800080A009F101001FFA80F9D945F5DB601C08
:1051900084B24445E8DDBDE8F08F2DE9F84F0746BD
:1051A0000D4690469946DDF828B0A8EB0700401C54
:1051B0001FFA80FAA9EB0500401C80B20090002481
:1051C00014E0281981B23846FCF75AFCFCF73BFC86
:1051D000002607E004FB0A603BF8100076490880CF
:1051E000701C86B25645F5DB601C84B20098844280
:1051F000E7DBBDE8F88F2DE9FF4F84B081468A4692
:105200000020039002900698A0EB09050798A0EBF8
:105210000A06CDF80490CDF800A0002D01DD01278D
:1052200005E00DB9002702E04FF0FF376D42002E78
:1052300002DD4FF0010806E016B94FF0000802E069
:105240004FF0FF387642B54201DD2C4600E034468F
:105250004FF0000B21E0009A91B2019A90B2FCF756
:1052600029FE039828440390029830440290039842
:10527000A04205DD0398001B03900198384401907B
:105280000298A04205DD0298001B0290009840445D
:1052900000900BF101001FFA80FB601C8345DADDF2
:1052A00008B0BDE8F08FF0B504460D4616461F461F
:1052B0002B46324629462046FFF79DFF3B462246B5
:1052C00029462046FFF797FF3B463246394620469F
:1052D000FFF791FF3B46324629463046FFF78BFFEA
:1052E000F0BD2DE9F04306460F46904600244546A2
:1052F0000320A0EB48093CE07A1B91B2321990B22E
:10530000FCF7D8FD3A1B91B2721990B2FCF7D2FDAE
:105310003A1991B2721990B2FCF7CCFD7A1991B298
:10532000321990B2FCF7C6FD7A1991B2321B90B2D5
:10533000FCF7C0FD3A1991B2721B90B2FCF7BAFDAE
:105340007A1B91B2321B90B2FCF7B4FD3A1B91B2BA
:10535000721B90B2FCF7AEFD641CB9F1000F03DACA
:10536000A000801D814404E0601B80000A3081445D
:105370006D1EAC42C0DDBDE8F0832DE9F84F8046DC
:105380000E4617461C46B3462046E31704EB5373FC
:10539000DB1021464FEAE47C04EB5C7C4FEAEC0C2A
:1053A000A4EBCC0CBCF1000F08D04FF0010C07E0CF
:1053B000360E0020BC8240428000006C4FF0000C92
:1053C0006344224604EBD27C4FEA6C0C03FB0CF3E3
:1053D000DBB20093A7F12000C7B2002556E00C2CE9
:1053E00007D107EB47009F4901EB800010F80590BB
:1053F00013E0102C05D19C4800EB071010F8059025
:105400000BE0182C07D107EBC700984901EB80008F
:1054100010F8059001E0BDE8F88F4FF0000A2FE08A
:1054200009F0800030B19248028831464046FCF7CE
:105430004FFD07E00A9828B98E4802883146404659
:10544000FCF746FD4FEA49604FEA1069701C86B2CE
:1054500089484088B04200DCDDE7A6EB0B00A042A3
:105460000AD15E4608F101001FFA80F882480088E0
:10547000404500DCCFE706E00AF1010000F0FF0A3A
:10548000BAF1080FCCDB00BF681CC5B2009885429A
:10549000A5DB00BFBFE710B50246012000E0504386
:1054A0000B1EA1F10104E1B2F9D110BD2DE9FF4FAE
:1054B00081B0074691461E460E9D4FF0000A00241B
:1054C00039E0301B401EC1B20A20FFF7E4FFB9FBF0
:1054D000F0F00A21B0FBF1F201FB1208BAF1000F63
:1054E00016D1701EA04213DDB8F1000F0ED10020BE
:1054F000AB4605EBDB71491001FB0471009088B2EB
:105500002B4620220299FFF738FF12E04FF0010AE4
:105510000020AB4605EBDB71491001FB04710090E4
:1055200088B208F13001CAB22B460299FFF725FF75
:1055300000BF601CC4B2B442C3DB05B0BDE8F08F4D
:105540002DE9FF4F82B0064692461F46DDE90F481F
:105550000020019000254DE0781B401EC1B20A20BA
:10556000FFF799FFBAFBF0F00A21B0FBF1F201FB63
:105570001209019850BB781EA84227DDB9F1000F2F
:1055800022D108F0800078B108F00100A34604EBB6
:10559000DB71491001FB0561009088B2234630227F
:1055A0000399FFF7EAFE0EE008F00100A34604EBC2
:1055B000DB71491001FB0561009088B2234620226F
:1055C0000399FFF7DAFE13E00120019008F00100D3
:1055D000A34604EBDB71491001FB0561009088B222
:1055E00009F13001CAB223460399FFF7C6FE00BF96
:1055F000681CC5B2BD42AFDB06B0BDE8F08F2DE937
:10560000F84704460D4690469946DDE9096704F0DF
:10561000FF0A08EB04001FFA80F809EB05001FFAE7
:1056200080F916E0444502DB5446A81985B24D4581
:1056300000DB14E0002000903A78334629462046EB
:10564000FFF79BFE304606EBD07104EB61018CB294
:105650007F1C38787E2802DC38782028E2DA00BF08
:10566000BDE8F887A0280108142D010804330108BB
:105670006000002062000020360E002010B50446B5
:1056800000BF0221414802F083FD0028F9D02146E5
:105690003E4802F034FD00BF01213C4802F078FD95
:1056A0000028F9D0394802F027FDC0B210BD00B57E
:1056B00087B00121084601F08BF90121080301F0B0
:1056C000E1F93820059002208DF8180000208DF8AF
:1056D0001A0003208DF8190001208DF81B0005A980
:1056E0002B4800F0F3FB05220321294800F079FC48
:1056F00005220421264800F074FC052211462448A6
:1057000000F06FFC0121080301F011FA00214FF4B1
:10571000805001F00CFA0020ADF800004FF48270C8
:10572000ADF802000020ADF804000220ADF806003C
:105730000120ADF808004002ADF80A003820ADF8AD
:105740000C000020ADF80E000720ADF810006946EF
:105750000E4802F059FB01210C4802F04FFCFF20DB
:10576000FFF78CFF07B000BD10B50446074800885E
:105770004FF6C77108400549088008460088204355
:1057800008800121014802F039FC10BD00300140C1
:105790000004024010B500240020D8490860902081
:1057A000FFF76CFF0020FFF769FF0020FFF766FF9F
:1057B0000020FFF763FFFF20FFF760FF44EA0024AB
:1057C000FF20FFF75BFF04430120CD49C1F8B80279
:1057D000204610BD1CB50121022001F0F9F801217D
:1057E000402001F0F5F84FF48040009001208DF842
:1057F000040000208DF8060003208DF8050001202C
:105800008DF807006946BF4800F060FB80200090DB
:105810006946BD4800F05AFB8021BB4800F0D2FB2E
:105820000120B6490860FFF742FF0820FFF79CFF00
:10583000FFF7B0FFB54908801CBD10B5002400205B
:10584000AE4908600520FFF719FFFF20FFF716FF9C
:1058500004460120AA49C1F8B802204610BD10B57F
:1058600004460020A54908600120FFF707FF2046F5
:10587000FFF704FF0120A249C1F8B80210BD10B51E
:1058800000209E4908600620FFF7F8FE01209C4991
:10589000C1F8B80210BD10B5002098490860042076
:1058A000FFF7ECFE01209649C1F8B80210BD2DE9C2
:1058B000F04106460C461746002090490860032038
:1058C000FFF7DCFEC4F30740FFF7D8FEC4F3072060
:1058D000FFF7D4FEE0B2FFF7D1FE002505E0FF2080
:1058E000FFF7CCFE7055681C85B2BD42F7DB012086
:1058F00082490860BDE8F08110B500BFFFF79DFF49
:1059000000F001000028F9D110BD2DE9F041064654
:105910000C461746FFF7B3FF0020784908600220C5
:10592000FFF7ACFEC4F30740FFF7A8FEC4F307205F
:10593000FFF7A4FEE0B2FFF7A1FE002504E0705DD2
:10594000FFF79CFE681C85B2BD42F8DB01206B4965
:105950000860FFF7D1FFBDE8F0812DE9F04107466F
:105960000E461446F0B2C0F58075AC4200DC254608
:1059700012E02A4631463846FFF7C7FFAC4200D155
:105980000BE02F442E44601B84B2B4F5807F02DD0F
:105990004FF4807500E02546EBE700BFBDE8F081DD
:1059A00010B5044621465AA00BF07AFD2403FFF7F8
:1059B00066FFFFF7A1FF0020504908602020FFF795
:1059C0005DFEC4F30740FFF759FEC4F30720FFF75D
:1059D00055FEE0B2FFF752FE01204949C1F8B80276
:1059E000FFF78AFF10BD2DE9F05F81460F4616468E
:1059F000DFF824B14FEA1738C7F30B0ACAF5805411
:105A0000A64200DC344644E04FEA08314FF48052AD
:105A10005846FFF74CFF002508E00AEB05001BF88D
:105A20000000FF2800D003E0681C85B2A542F4DB2B
:105A300000BFA54216DA4046FFF7B2FF002507E097
:105A400019F8050005EB0A010BF80100681C85B286
:105A5000A542F5DB4FEA08314FF480525846FFF774
:105A60007CFF04E0224639464846FFF776FFA6420F
:105A700000D10FE008F101084FF0000AA1442744CB
:105A8000301B86B2B6F5805F02DD4FF4805400E033
:105A90003446B9E700BFBDE8F09F10B5FFF7EFFE51
:105AA000FFF72AFF002015490860C720FFF7E6FD31
:105AB00001201349C1F8B802FFF71EFF10BD10B551
:105AC00000200E490860B920FFF7D8FD01200C49DD
:105AD000C1F8B802032000F034F810BD10B5002062
